{
  "_format": "hh-sol-artifact-1",
  "contractName": "Database",
  "sourceName": "contracts/Database.sol",
  "abi": [
    {
      "anonymous": false,
      "inputs": [
        {
          "indexed": false,
          "internalType": "uint256",
          "name": "",
          "type": "uint256"
        }
      ],
      "name": "GeneratedUIDOfPoll",
      "type": "event"
    },
    {
      "anonymous": false,
      "inputs": [
        {
          "indexed": false,
          "internalType": "bool",
          "name": "",
          "type": "bool"
        }
      ],
      "name": "OnCandidateAdded",
      "type": "event"
    },
    {
      "anonymous": false,
      "inputs": [
        {
          "indexed": false,
          "internalType": "bool",
          "name": "",
          "type": "bool"
        }
      ],
      "name": "OnCandidateRemoved",
      "type": "event"
    },
    {
      "anonymous": false,
      "inputs": [
        {
          "indexed": false,
          "internalType": "bool",
          "name": "",
          "type": "bool"
        }
      ],
      "name": "OnPollRemoved",
      "type": "event"
    },
    {
      "anonymous": false,
      "inputs": [
        {
          "indexed": false,
          "internalType": "bool",
          "name": "",
          "type": "bool"
        }
      ],
      "name": "OnVoterAdded",
      "type": "event"
    },
    {
      "anonymous": false,
      "inputs": [
        {
          "indexed": false,
          "internalType": "bool",
          "name": "",
          "type": "bool"
        }
      ],
      "name": "OnVoterRemoved",
      "type": "event"
    },
    {
      "anonymous": false,
      "inputs": [
        {
          "indexed": false,
          "internalType": "bool",
          "name": "",
          "type": "bool"
        }
      ],
      "name": "onVoteCastEvent",
      "type": "event"
    },
    {
      "inputs": [
        {
          "internalType": "uint256",
          "name": "uid",
          "type": "uint256"
        },
        {
          "internalType": "string",
          "name": "name",
          "type": "string"
        }
      ],
      "name": "addCandidate",
      "outputs": [],
      "stateMutability": "nonpayable",
      "type": "function"
    },
    {
      "inputs": [
        {
          "internalType": "uint256",
          "name": "uid",
          "type": "uint256"
        },
        {
          "internalType": "address",
          "name": "voterId",
          "type": "address"
        }
      ],
      "name": "addVoter",
      "outputs": [],
      "stateMutability": "nonpayable",
      "type": "function"
    },
    {
      "inputs": [
        {
          "internalType": "uint256",
          "name": "uid",
          "type": "uint256"
        },
        {
          "internalType": "uint256",
          "name": "index",
          "type": "uint256"
        }
      ],
      "name": "castVote",
      "outputs": [],
      "stateMutability": "nonpayable",
      "type": "function"
    },
    {
      "inputs": [
        {
          "internalType": "string",
          "name": "title",
          "type": "string"
        },
        {
          "internalType": "uint256",
          "name": "startTime",
          "type": "uint256"
        },
        {
          "internalType": "uint256",
          "name": "endTime",
          "type": "uint256"
        }
      ],
      "name": "createPoll",
      "outputs": [],
      "stateMutability": "nonpayable",
      "type": "function"
    },
    {
      "inputs": [],
      "name": "getMyPolls",
      "outputs": [
        {
          "components": [
            {
              "internalType": "uint256",
              "name": "uid",
              "type": "uint256"
            },
            {
              "internalType": "string",
              "name": "title",
              "type": "string"
            },
            {
              "internalType": "uint256",
              "name": "startTime",
              "type": "uint256"
            },
            {
              "internalType": "uint256",
              "name": "endTime",
              "type": "uint256"
            },
            {
              "components": [
                {
                  "internalType": "string",
                  "name": "name",
                  "type": "string"
                },
                {
                  "internalType": "uint256",
                  "name": "voteCount",
                  "type": "uint256"
                }
              ],
              "internalType": "struct Database.Candidate[]",
              "name": "candidates",
              "type": "tuple[]"
            },
            {
              "components": [
                {
                  "internalType": "address",
                  "name": "id",
                  "type": "address"
                },
                {
                  "internalType": "bool",
                  "name": "isVoted",
                  "type": "bool"
                }
              ],
              "internalType": "struct Database.Voter[]",
              "name": "voters",
              "type": "tuple[]"
            },
            {
              "internalType": "address",
              "name": "organiser",
              "type": "address"
            }
          ],
          "internalType": "struct Database.Poll[]",
          "name": "",
          "type": "tuple[]"
        }
      ],
      "stateMutability": "view",
      "type": "function"
    },
    {
      "inputs": [
        {
          "internalType": "uint256",
          "name": "uid",
          "type": "uint256"
        }
      ],
      "name": "getPoll",
      "outputs": [
        {
          "components": [
            {
              "internalType": "uint256",
              "name": "uid",
              "type": "uint256"
            },
            {
              "internalType": "string",
              "name": "title",
              "type": "string"
            },
            {
              "internalType": "uint256",
              "name": "startTime",
              "type": "uint256"
            },
            {
              "internalType": "uint256",
              "name": "endTime",
              "type": "uint256"
            },
            {
              "components": [
                {
                  "internalType": "string",
                  "name": "name",
                  "type": "string"
                },
                {
                  "internalType": "uint256",
                  "name": "voteCount",
                  "type": "uint256"
                }
              ],
              "internalType": "struct Database.Candidate[]",
              "name": "candidates",
              "type": "tuple[]"
            },
            {
              "components": [
                {
                  "internalType": "address",
                  "name": "id",
                  "type": "address"
                },
                {
                  "internalType": "bool",
                  "name": "isVoted",
                  "type": "bool"
                }
              ],
              "internalType": "struct Database.Voter[]",
              "name": "voters",
              "type": "tuple[]"
            },
            {
              "internalType": "address",
              "name": "organiser",
              "type": "address"
            }
          ],
          "internalType": "struct Database.Poll",
          "name": "",
          "type": "tuple"
        }
      ],
      "stateMutability": "view",
      "type": "function"
    },
    {
      "inputs": [
        {
          "internalType": "uint256",
          "name": "pollId",
          "type": "uint256"
        }
      ],
      "name": "isPollOwner",
      "outputs": [
        {
          "internalType": "bool",
          "name": "",
          "type": "bool"
        }
      ],
      "stateMutability": "view",
      "type": "function"
    },
    {
      "inputs": [
        {
          "internalType": "uint256",
          "name": "pollId",
          "type": "uint256"
        }
      ],
      "name": "isVoteCasted",
      "outputs": [
        {
          "internalType": "bool",
          "name": "",
          "type": "bool"
        }
      ],
      "stateMutability": "view",
      "type": "function"
    },
    {
      "inputs": [
        {
          "internalType": "uint256",
          "name": "pollId",
          "type": "uint256"
        }
      ],
      "name": "isVoterEligible",
      "outputs": [
        {
          "internalType": "bool",
          "name": "",
          "type": "bool"
        }
      ],
      "stateMutability": "view",
      "type": "function"
    },
    {
      "inputs": [
        {
          "internalType": "uint256",
          "name": "uid",
          "type": "uint256"
        },
        {
          "internalType": "uint256",
          "name": "index",
          "type": "uint256"
        }
      ],
      "name": "removeCandidate",
      "outputs": [],
      "stateMutability": "nonpayable",
      "type": "function"
    },
    {
      "inputs": [
        {
          "internalType": "uint256",
          "name": "uid",
          "type": "uint256"
        }
      ],
      "name": "removePoll",
      "outputs": [],
      "stateMutability": "nonpayable",
      "type": "function"
    },
    {
      "inputs": [
        {
          "internalType": "uint256",
          "name": "uid",
          "type": "uint256"
        },
        {
          "internalType": "uint256",
          "name": "index",
          "type": "uint256"
        }
      ],
      "name": "removeVoter",
      "outputs": [],
      "stateMutability": "nonpayable",
      "type": "function"
    }
  ],
  "bytecode": "0x60806040526000805534801561001457600080fd5b506125e9806100246000396000f3fe608060405234801561001057600080fd5b50600436106100b45760003560e01c806334bfce7f1161007157806334bfce7f1461018b5780634d9976e7146101a757806397ce5f9e146101c3578063d5590a55146101f3578063dce8d8a31461020f578063fa901afa1461023f576100b4565b806309391321146100b957806315601a21146100d5578063170b5add146101055780631750a3d0146101235780631a8cbcaa1461013f5780632c0a3f891461016f575b600080fd5b6100d360048036038101906100ce91906117c7565b61025b565b005b6100ef60048036038101906100ea9190611807565b610369565b6040516100fc919061184f565b60405180910390f35b61010d6103d7565b60405161011a9190611c70565b60405180910390f35b61013d60048036038101906101389190611dc7565b610740565b005b61015960048036038101906101549190611807565b6107f3565b6040516101669190611ecd565b60405180910390f35b61018960048036038101906101849190611eef565b610aed565b005b6101a560048036038101906101a09190611807565b610cb8565b005b6101c160048036038101906101bc9190611f2f565b610d78565b005b6101dd60048036038101906101d89190611807565b610f80565b6040516101ea919061184f565b60405180910390f35b61020d60048036038101906102089190611eef565b611094565b005b61022960048036038101906102249190611807565b6111d9565b604051610236919061184f565b60405180910390f35b61025960048036038101906102549190611eef565b6112ac565b005b6001600083815260200190815260200160002060050160405180604001604052808373ffffffffffffffffffffffffffffffffffffffff168152602001600015158152509080600181540180825580915050600190039060005260206000200160009091909190915060008201518160000160006101000a81548173ffffffffffffffffffffffffffffffffffffffff021916908373ffffffffffffffffffffffffffffffffffffffff16021790555060208201518160000160146101000a81548160ff02191690831515021790555050507f80fdaa86ac3543d8ce33bdd6ece9006994eda828325799f617f1a9fd3da4e6ac600160405161035d919061184f565b60405180910390a15050565b60003373ffffffffffffffffffffffffffffffffffffffff166001600084815260200190815260200160002060060160009054906101000a900473ffffffffffffffffffffffffffffffffffffffff1673ffffffffffffffffffffffffffffffffffffffff16149050919050565b6060600260003373ffffffffffffffffffffffffffffffffffffffff1673ffffffffffffffffffffffffffffffffffffffff168152602001908152602001600020805480602002602001604051908101604052809291908181526020016000905b8282101561073757838290600052602060002090600702016040518060e00160405290816000820154815260200160018201805461047590611fcd565b80601f01602080910402602001604051908101604052809291908181526020018280546104a190611fcd565b80156104ee5780601f106104c3576101008083540402835291602001916104ee565b820191906000526020600020905b8154815290600101906020018083116104d157829003601f168201915b50505050508152602001600282015481526020016003820154815260200160048201805480602002602001604051908101604052809291908181526020016000905b828210156105fe578382906000526020600020906002020160405180604001604052908160008201805461056390611fcd565b80601f016020809104026020016040519081016040528092919081815260200182805461058f90611fcd565b80156105dc5780601f106105b1576101008083540402835291602001916105dc565b820191906000526020600020905b8154815290600101906020018083116105bf57829003601f168201915b5050505050815260200160018201548152505081526020019060010190610530565b50505050815260200160058201805480602002602001604051908101604052809291908181526020016000905b828210156106ca578382906000526020600020016040518060400160405290816000820160009054906101000a900473ffffffffffffffffffffffffffffffffffffffff1673ffffffffffffffffffffffffffffffffffffffff1673ffffffffffffffffffffffffffffffffffffffff1681526020016000820160149054906101000a900460ff1615151515815250508152602001906001019061062b565b5050505081526020016006820160009054906101000a900473ffffffffffffffffffffffffffffffffffffffff1673ffffffffffffffffffffffffffffffffffffffff1673ffffffffffffffffffffffffffffffffffffffff168152505081526020019060010190610438565b50505050905090565b6001600083815260200190815260200160002060040160405180604001604052808381526020016000815250908060018154018082558091505060019003906000526020600020906002020160009091909190915060008201518160000190816107aa91906121aa565b506020820151816001015550507f5a8f3d12e3db9ccf72bf570421487260841d30a12453b51bec7c0f1eddbea03860016040516107e7919061184f565b60405180910390a15050565b6107fb61144c565b600160008381526020019081526020016000206040518060e00160405290816000820154815260200160018201805461083390611fcd565b80601f016020809104026020016040519081016040528092919081815260200182805461085f90611fcd565b80156108ac5780601f10610881576101008083540402835291602001916108ac565b820191906000526020600020905b81548152906001019060200180831161088f57829003601f168201915b50505050508152602001600282015481526020016003820154815260200160048201805480602002602001604051908101604052809291908181526020016000905b828210156109bc578382906000526020600020906002020160405180604001604052908160008201805461092190611fcd565b80601f016020809104026020016040519081016040528092919081815260200182805461094d90611fcd565b801561099a5780601f1061096f5761010080835404028352916020019161099a565b820191906000526020600020905b81548152906001019060200180831161097d57829003601f168201915b50505050508152602001600182015481525050815260200190600101906108ee565b50505050815260200160058201805480602002602001604051908101604052809291908181526020016000905b82821015610a88578382906000526020600020016040518060400160405290816000820160009054906101000a900473ffffffffffffffffffffffffffffffffffffffff1673ffffffffffffffffffffffffffffffffffffffff1673ffffffffffffffffffffffffffffffffffffffff1681526020016000820160149054906101000a900460ff161515151581525050815260200190600101906109e9565b5050505081526020016006820160009054906101000a900473ffffffffffffffffffffffffffffffffffffffff1673ffffffffffffffffffffffffffffffffffffffff1673ffffffffffffffffffffffffffffffffffffffff16815250509050919050565b60005b6001600084815260200190815260200160002060050180549050811015610c7b573373ffffffffffffffffffffffffffffffffffffffff16600160008581526020019081526020016000206005018281548110610b5057610b4f61227c565b5b9060005260206000200160000160009054906101000a900473ffffffffffffffffffffffffffffffffffffffff1673ffffffffffffffffffffffffffffffffffffffff1603610c6e57600160008481526020019081526020016000206004018281548110610bc157610bc061227c565b5b90600052602060002090600202016001016000815480929190610be3906122da565b919050555060018060008581526020019081526020016000206005018281548110610c1157610c1061227c565b5b9060005260206000200160000160146101000a81548160ff0219169083151502179055507f75eb7f74319428f8fb8a438466e195b6110a2c43ca67ba2a3e479d0e5681eb2c6001604051610c65919061184f565b60405180910390a15b8080600101915050610af0565b507f75eb7f74319428f8fb8a438466e195b6110a2c43ca67ba2a3e479d0e5681eb2c6000604051610cac919061184f565b60405180910390a15050565b60016000828152602001908152602001600020600080820160009055600182016000610ce4919061149f565b60028201600090556003820160009055600482016000610d0491906114df565b600582016000610d149190611503565b6006820160006101000a81549073ffffffffffffffffffffffffffffffffffffffff021916905550507fc384b2ff84e0ebd1649764e56f1f8271d14696f6c8cd21baeb9552a5dfccb41e6001604051610d6d919061184f565b60405180910390a150565b6000610d86620186a06113f1565b9050600060016000838152602001908152602001600020905081816000018190555084816001019081610db991906121aa565b50838160020181905550828160030181905550338160060160006101000a81548173ffffffffffffffffffffffffffffffffffffffff021916908373ffffffffffffffffffffffffffffffffffffffff160217905550600260003373ffffffffffffffffffffffffffffffffffffffff1673ffffffffffffffffffffffffffffffffffffffff1681526020019081526020016000208190806001815401808255809150506001900390600052602060002090600702016000909190919091506000820154816000015560018201816001019081610e969190612338565b5060028201548160020155600382015481600301556004820181600401908054610ec1929190611524565b506005820181600501908054610ed892919061159b565b506006820160009054906101000a900473ffffffffffffffffffffffffffffffffffffffff168160060160006101000a81548173ffffffffffffffffffffffffffffffffffffffff021916908373ffffffffffffffffffffffffffffffffffffffff16021790555050507f273754d60ddac0531f80b13b4b3c3e579697aea77573c6df08aa988b0b6c915882604051610f71919061242f565b60405180910390a15050505050565b600080600090505b6001600084815260200190815260200160002060050180549050811015611089573373ffffffffffffffffffffffffffffffffffffffff16600160008581526020019081526020016000206005018281548110610fe857610fe761227c565b5b9060005260206000200160000160009054906101000a900473ffffffffffffffffffffffffffffffffffffffff1673ffffffffffffffffffffffffffffffffffffffff160361107c576001600084815260200190815260200160002060050181815481106110595761105861227c565b5b9060005260206000200160000160149054906101000a900460ff1691505061108f565b8080600101915050610f88565b50600090505b919050565b600160008381526020019081526020016000206004016001806000858152602001908152602001600020600401805490506110cf919061244a565b815481106110e0576110df61227c565b5b90600052602060002090600202016001600084815260200190815260200160002060040182815481106111165761111561227c565b5b9060005260206000209060020201600082018160000190816111389190612338565b50600182015481600101559050506001600083815260200190815260200160002060040180548061116c5761116b61247e565b5b600190038181906000526020600020906002020160008082016000611191919061149f565b6001820160009055505090557ff90dfef617d3b78eca8f43eb3a3aaea6ebfe64daae7c053fb0ccbd400d8c051660016040516111cd919061184f565b60405180910390a15050565b600080600090505b60016000848152602001908152602001600020600501805490508110156112a1573373ffffffffffffffffffffffffffffffffffffffff166001600085815260200190815260200160002060050182815481106112415761124061227c565b5b9060005260206000200160000160009054906101000a900473ffffffffffffffffffffffffffffffffffffffff1673ffffffffffffffffffffffffffffffffffffffff16036112945760019150506112a7565b80806001019150506111e1565b50600090505b919050565b600160008381526020019081526020016000206004016001806000858152602001908152602001600020600401805490506112e7919061244a565b815481106112f8576112f761227c565b5b906000526020600020906002020160016000848152602001908152602001600020600401828154811061132e5761132d61227c565b5b9060005260206000209060020201600082018160000190816113509190612338565b5060018201548160010155905050600160008381526020019081526020016000206004018054806113845761138361247e565b5b6001900381819060005260206000209060020201600080820160006113a9919061149f565b6001820160009055505090557f2c875af8698ea22658a5fcdf1936e1f4cdee50086320cb0341e3e79d307148d560016040516113e5919061184f565b60405180910390a15050565b6000806000815480929190611405906122da565b919050555081423360005460405160200161142293929190612516565b6040516020818303038152906040528051906020012060001c6114459190612582565b9050919050565b6040518060e00160405280600081526020016060815260200160008152602001600081526020016060815260200160608152602001600073ffffffffffffffffffffffffffffffffffffffff1681525090565b5080546114ab90611fcd565b6000825580601f106114bd57506114dc565b601f0160209004906000526020600020908101906114db9190611681565b5b50565b5080546000825560020290600052602060002090810190611500919061169e565b50565b508054600082559060005260206000209081019061152191906116cd565b50565b82805482825590600052602060002090600202810192821561158a5760005260206000209160020282015b828111156115895782826000820181600001908161156d9190612338565b506001820154816001015550509160020191906002019061154f565b5b509050611597919061169e565b5090565b8280548282559060005260206000209081019282156116705760005260206000209182015b8281111561166f5782826000820160009054906101000a900473ffffffffffffffffffffffffffffffffffffffff168160000160006101000a81548173ffffffffffffffffffffffffffffffffffffffff021916908373ffffffffffffffffffffffffffffffffffffffff1602179055506000820160149054906101000a900460ff168160000160146101000a81548160ff0219169083151502179055505050916001019190600101906115c0565b5b50905061167d91906116cd565b5090565b5b8082111561169a576000816000905550600101611682565b5090565b5b808211156116c957600080820160006116b8919061149f565b60018201600090555060020161169f565b5090565b5b8082111561171b57600080820160006101000a81549073ffffffffffffffffffffffffffffffffffffffff02191690556000820160146101000a81549060ff0219169055506001016116ce565b5090565b6000604051905090565b600080fd5b600080fd5b6000819050919050565b61174681611733565b811461175157600080fd5b50565b6000813590506117638161173d565b92915050565b600073ffffffffffffffffffffffffffffffffffffffff82169050919050565b600061179482611769565b9050919050565b6117a481611789565b81146117af57600080fd5b50565b6000813590506117c18161179b565b92915050565b600080604083850312156117de576117dd611729565b5b60006117ec85828601611754565b92505060206117fd858286016117b2565b9150509250929050565b60006020828403121561181d5761181c611729565b5b600061182b84828501611754565b91505092915050565b60008115159050919050565b61184981611834565b82525050565b60006020820190506118646000830184611840565b92915050565b600081519050919050565b600082825260208201905092915050565b6000819050602082019050919050565b61189f81611733565b82525050565b600081519050919050565b600082825260208201905092915050565b60005b838110156118df5780820151818401526020810190506118c4565b60008484015250505050565b6000601f19601f8301169050919050565b6000611907826118a5565b61191181856118b0565b93506119218185602086016118c1565b61192a816118eb565b840191505092915050565b600081519050919050565b600082825260208201905092915050565b6000819050602082019050919050565b6000604083016000830151848203600086015261197e82826118fc565b91505060208301516119936020860182611896565b508091505092915050565b60006119aa8383611961565b905092915050565b6000602082019050919050565b60006119ca82611935565b6119d48185611940565b9350836020820285016119e685611951565b8060005b85811015611a225784840389528151611a03858261199e565b9450611a0e836119b2565b925060208a019950506001810190506119ea565b50829750879550505050505092915050565b600081519050919050565b600082825260208201905092915050565b6000819050602082019050919050565b611a6981611789565b82525050565b611a7881611834565b82525050565b604082016000820151611a946000850182611a60565b506020820151611aa76020850182611a6f565b50505050565b6000611ab98383611a7e565b60408301905092915050565b6000602082019050919050565b6000611add82611a34565b611ae78185611a3f565b9350611af283611a50565b8060005b83811015611b23578151611b0a8882611aad565b9750611b1583611ac5565b925050600181019050611af6565b5085935050505092915050565b600060e083016000830151611b486000860182611896565b5060208301518482036020860152611b6082826118fc565b9150506040830151611b756040860182611896565b506060830151611b886060860182611896565b5060808301518482036080860152611ba082826119bf565b91505060a083015184820360a0860152611bba8282611ad2565b91505060c0830151611bcf60c0860182611a60565b508091505092915050565b6000611be68383611b30565b905092915050565b6000602082019050919050565b6000611c068261186a565b611c108185611875565b935083602082028501611c2285611886565b8060005b85811015611c5e5784840389528151611c3f8582611bda565b9450611c4a83611bee565b925060208a01995050600181019050611c26565b50829750879550505050505092915050565b60006020820190508181036000830152611c8a8184611bfb565b905092915050565b600080fd5b600080fd5b7f4e487b7100000000000000000000000000000000000000000000000000000000600052604160045260246000fd5b611cd4826118eb565b810181811067ffffffffffffffff82111715611cf357611cf2611c9c565b5b80604052505050565b6000611d0661171f565b9050611d128282611ccb565b919050565b600067ffffffffffffffff821115611d3257611d31611c9c565b5b611d3b826118eb565b9050602081019050919050565b82818337600083830152505050565b6000611d6a611d6584611d17565b611cfc565b905082815260208101848484011115611d8657611d85611c97565b5b611d91848285611d48565b509392505050565b600082601f830112611dae57611dad611c92565b5b8135611dbe848260208601611d57565b91505092915050565b60008060408385031215611dde57611ddd611729565b5b6000611dec85828601611754565b925050602083013567ffffffffffffffff811115611e0d57611e0c61172e565b5b611e1985828601611d99565b9150509250929050565b600060e083016000830151611e3b6000860182611896565b5060208301518482036020860152611e5382826118fc565b9150506040830151611e686040860182611896565b506060830151611e7b6060860182611896565b5060808301518482036080860152611e9382826119bf565b91505060a083015184820360a0860152611ead8282611ad2565b91505060c0830151611ec260c0860182611a60565b508091505092915050565b60006020820190508181036000830152611ee78184611e23565b905092915050565b60008060408385031215611f0657611f05611729565b5b6000611f1485828601611754565b9250506020611f2585828601611754565b9150509250929050565b600080600060608486031215611f4857611f47611729565b5b600084013567ffffffffffffffff811115611f6657611f6561172e565b5b611f7286828701611d99565b9350506020611f8386828701611754565b9250506040611f9486828701611754565b9150509250925092565b7f4e487b7100000000000000000000000000000000000000000000000000000000600052602260045260246000fd5b60006002820490506001821680611fe557607f821691505b602082108103611ff857611ff7611f9e565b5b50919050565b60008190508160005260206000209050919050565b60006020601f8301049050919050565b600082821b905092915050565b6000600883026120607fffffffffffffffffffffffffffffffffffffffffffffffffffffffffffffffff82612023565b61206a8683612023565b95508019841693508086168417925050509392505050565b6000819050919050565b60006120a76120a261209d84611733565b612082565b611733565b9050919050565b6000819050919050565b6120c18361208c565b6120d56120cd826120ae565b848454612030565b825550505050565b600090565b6120ea6120dd565b6120f58184846120b8565b505050565b5b818110156121195761210e6000826120e2565b6001810190506120fb565b5050565b601f82111561215e5761212f81611ffe565b61213884612013565b81016020851015612147578190505b61215b61215385612013565b8301826120fa565b50505b505050565b600082821c905092915050565b600061218160001984600802612163565b1980831691505092915050565b600061219a8383612170565b9150826002028217905092915050565b6121b3826118a5565b67ffffffffffffffff8111156121cc576121cb611c9c565b5b6121d68254611fcd565b6121e182828561211d565b600060209050601f8311600181146122145760008415612202578287015190505b61220c858261218e565b865550612274565b601f19841661222286611ffe565b60005b8281101561224a57848901518255600182019150602085019450602081019050612225565b868310156122675784890151612263601f891682612170565b8355505b6001600288020188555050505b505050505050565b7f4e487b7100000000000000000000000000000000000000000000000000000000600052603260045260246000fd5b7f4e487b7100000000000000000000000000000000000000000000000000000000600052601160045260246000fd5b60006122e582611733565b91507fffffffffffffffffffffffffffffffffffffffffffffffffffffffffffffffff8203612317576123166122ab565b5b600182019050919050565b60008154905061233181611fcd565b9050919050565b81810361234657505061241e565b61234f82612322565b67ffffffffffffffff81111561236857612367611c9c565b5b6123728254611fcd565b61237d82828561211d565b6000601f8311600181146123ac576000841561239a578287015490505b6123a4858261218e565b865550612417565b601f1984166123ba87611ffe565b96506123c586611ffe565b60005b828110156123ed578489015482556001820191506001850194506020810190506123c8565b8683101561240a5784890154612406601f891682612170565b8355505b6001600288020188555050505b5050505050505b565b61242981611733565b82525050565b60006020820190506124446000830184612420565b92915050565b600061245582611733565b915061246083611733565b9250828203905081811115612478576124776122ab565b5b92915050565b7f4e487b7100000000000000000000000000000000000000000000000000000000600052603160045260246000fd5b6000819050919050565b6124c86124c382611733565b6124ad565b82525050565b60008160601b9050919050565b60006124e6826124ce565b9050919050565b60006124f8826124db565b9050919050565b61251061250b82611789565b6124ed565b82525050565b600061252282866124b7565b60208201915061253282856124ff565b60148201915061254282846124b7565b602082019150819050949350505050565b7f4e487b7100000000000000000000000000000000000000000000000000000000600052601260045260246000fd5b600061258d82611733565b915061259883611733565b9250826125a8576125a7612553565b5b82820690509291505056fea26469706673582212200e7cac342409286572963eea50c848d00cfeac0950487f1ebff0b3aa4e419e1e64736f6c63430008180033",
  "linkReferences": {},
  "deployedLinkReferences": {}
}